:020000040800F2
:1000000010050024AD0200083B250008EB24000881
:1000100039250008F50200085128000800000000FA
:100020000000000000000000000000003927000868
:1000300075030008000000003D2500083B2700086C
:10004000C7020008C7020008C7020008C70200086C
:10005000C7020008C7020008C7020008C70200085C
:10006000C7020008C7020008C7020008C70200084C
:10007000C7020008C7020008C7020008C70200083C
:10008000C7020008C7020008C70200087903000879
:10009000C7020008C7020008C7020008C70200081C
:1000A000C7020008C7020008C7020008C70200080C
:1000B000C7020008C7020008C7020008C7020008FC
:1000C000C7020008C7020008C7020008C7020008EC
:1000D000C7020008C7020008C7020008C7020008DC
:1000E000C7020008C702000800000000C70200089D
:1000F000C7020008C7020008C7020008C7020008BC
:10010000C7020008C7020008C7020008C7020008AB
:10011000C7020008C7020008C7020008C70200089B
:10012000C7020008C7020008C7020008C70200088B
:10013000C7020008C7020008C7020008C70200087B
:1001400000000000000000000000000000000000AF
:10015000C7020008C7020008C7020008C70200085B
:10016000C7020008C7020008C7020008C70200084B
:10017000C7020008C7020008C7020008000000000C
:10018000C7020008C7020008C7020008C70200082B
:10019000C7020008C7020008C7020008C70200081B
:1001A000C7020008C7020008C7020008C70200080B
:1001B000C7020008C7020008C7020008C7020008FB
:1001C000C7020008C7020008C7020008C7020008EB
:1001D000C7020008C7020008C7020008C7020008DB
:1001E000C7020008C7020008C7020008C7020008CB
:1001F000C7020008C7020008C7020008C7020008BB
:10020000C7020008C7020008C7020008C7020008AA
:10021000C7020008C7020008C7020008C70200089A
:10022000C7020008C7020008C7020008000000005B
:10023000C7020008C702000800000000C70200084B
:10024000C7020008C7020008C7020008C70200086A
:10025000C7020008C7020008C7020008C70200085A
:10026000C7020008C7020008C7020008C70200084A
:10027000C7020008C7020008C7020008000000000B
:10028000C702000800000000C702000800000000CC
:1002900000000000C7020008DFF80CD000F018F8DA
:1002A00000480047952800081005002406488047AC
:1002B00006480047FEE7FEE7FEE7FEE7FEE7FEE74B
:1002C000FEE7FEE7FEE7FEE7C927000899020008FF
:1002D000064C074D06E0E06840F0010394E8070093
:1002E00098471034AC42F6D3FFF7DAFF2029000814
:1002F00040290008FEE70000F0B5BFF34F8FBFF3C1
:100300006F8F1A4900200860BFF34F8FBFF36F8FC4
:10031000174A116841F400311160BFF34F8FBFF3EA
:100320006F8F134970310860BFF34F8F081F43F67A
:10033000FF7400680D4D1035C0F34E31C0F3C90392
:1003400004EA4116184600BF46EA80772F60401E37
:10035000FAD2491EF4D2BFF34F8F106840F48030B8
:100360001060BFF34F8FBFF36F8FF0BD50EF00E011
:1003700014ED00E070470000014800F00BBB0000E6
:100380002400002470B5436B4FF6FC71C36602680D
:100390007A4E7B4DD2F884408C4344EA8303C2F802
:1003A00084300268038FD2F8844024F47F0444EA46
:1003B0000343C2F88430836BC26E13440367026840
:1003C000D2F888408C4344EA8303C2F8883002683C
:1003D000838FD2F8884024F47F0444EA0343C2F8B0
:1003E0008830C36B026F02EB430343670268D2F8A5
:1003F000A0408C4344EA8303C2F8A0300268B0F8FE
:100400004030D2F8A04024F4FE0444EA0343C2F88A
:10041000A030D0E91034426F03FB042282670368E6
:10042000D3F8B04024F0FC0444EA8202C3F8B020C0
:100430000268B0F84830D2F8B04024F4FE0444EA30
:100440000343C2F8B030D0E91234826F03FB0422B8
:10045000C2670368D3F8AC4024F0FC0444EA82028B
:10046000C3F8AC20D0E91434C26F03FB0423C0F8F6
:1004700080300268D2F8F0408C4344EA8301C2F82D
:10048000F0100168B0F85820D1F8F03023F47C1354
:1004900043EA0242C1F8F020826DD0F8801001EBEF
:1004A0004202C0F884200168D1F8C03023F0FC0378
:1004B00043EA8202C1F8C0200168B0F85C20D1F89C
:1004C000C03023F47C1343EA0242C1F8C020836E9B
:1004D000C26DD0F8841002FB0311C0F888100168C7
:1004E00090F86020D1F8C03023F07C5343EA0262D8
:1004F000C1F8C020416B06EB8101C166826B01EB44
:1005000082020267C36B02EBC3024267D0E9103478
:10051000634302EB83028267D0E91234634302EB48
:100520008302C267D0E91434634302EB8302C0F84C
:100530008020836D02EBC303C0F88430C46D826EEB
:10054000544303EB8403C0F88830046E544303EB38
:100550008402C0F89020AA4207D9D0F8981041F040
:100560002001C0F89810012070BD002200E004C1F5
:10057000D0F890308B42FAD8002070BD00AC00401B
:10058000FCB5004028480822F0B50024254B89B06E
:100590008460C460012503601F230574022644742F
:1005A000042185744661C0E906230262C0E90D4555
:1005B000C0E90F45C0E9111404658465C0E9174519
:1005C000C0E9194100F01CFC00B1FEE740F2FF70E9
:1005D00040F22137009469460395CDE90470124832
:1005E000CDE9014600F0E1F800B1FEE70E4800F069
:1005F0008AFD00B1FEE70C480022012100F062F8FC
:1006000000B1FEE708484FF40021C430C0E900748F
:10061000C0E90241046144618461C461046209B0BB
:10062000F0BD000000A0004024000024F0B58E685A
:100630000C69D1E9005744EA0604DFB145F0804572
:100640002C43866ED1E906C54F695E4391F8203090
:1006500045EA0C05D0F884E00020D1F80CC047EA48
:1006600003630E4F1D430EEB860345EA0C05E3E8DA
:1006700002450AE044EA8544E3E71418155C001DCE
:10068000D4F8014045EA042410C3CC6807EB1444B5
:1006900024788442F1D80020F0BD0000FC28000836
:1006A00070B5044600F056FE0546601C02D00448B2
:1006B0000078044400F04EFE401BA042FAD370BD07
:1006C0001800002410B590F89430012B0BD090F84E
:1006D0009430022B07D0D0F8981041F00201C0F8F6
:1006E0009810012010BD03689C6D0C4203D1DC6D95
:1006F00044F0010404E09C6D31EA04041FD003249B
:10070000DC658B0505D50368D3F8E0401443C3F8D6
:10071000E0404B0505D50368D3F8E4401443C3F823
:10072000E4400068084A01EA0203446D074A1C439A
:100730004465106840EA91701060002010BDDC6DC7
:1007400044F00204DCE70000FFFFCF3F14A80040A4
:1007500070B5044690F89400022804D0D4F89800AC
:1007600040F008000DE02068D0F8C03013F07C5F46
:1007700003D0D0F8C4309B0207D5D4F8980040F0DD
:100780002000C4F89800012070BDD0F8C400C0F368
:10079000044520462B46FFF749FF21680120A84069
:1007A000C1F8D000002070BD704770B590F894205B
:1007B000012A0BD090F89420022A07D0D0F8981084
:1007C00041F00201C0F89810012070BD0B68CA68A2
:1007D00083B10B69072A43EA427325D00C7A4A6930
:1007E00042EA84724968006F00EBC100C0E9003240
:1007F000002070BD072A0DD00C7AD6060D8A4B69F1
:1008000043EA847246EA0543C06E49681A4340F8D9
:100810002120EDE70B8A4FF06055D1E9062442EA2A
:10082000034245EA0423EFE78A69DBE770470000EB
:10083000F0B590F894400025012C08D090F8944031
:10084000022C04D0D0F8981041F002011AE040299F
:1008500005D041291AD0046D8C420FD928E00468D4
:10086000D4F8A05015F4FE0F08D0D4F8A4506D06AB
:1008700004D0D4F8A450466F446C15E0D0F898101A
:1008800041F02001C0F898100120F0BD0468D4F8B0
:10089000B05015F4FE0FF1D0D4F8B4506D06EDD081
:1008A000D4F8B450866FC46CC5F305256C4302E0E0
:1008B000446DC66F4C4306EB8404266816F08046F0
:1008C0005660266836D026F060461660D4F800C020
:1008D00000262E4F0CF0005CC2F808C0D4F800C00F
:1008E0000CF0004CC2F810C0B4F804C01FFA8CFC25
:1008F000C2F81CC0D4F804C00CF4702CC2F80CC0B0
:10090000D4F804C00CF4801CC2F814C0D4F804C09D
:100910000CF4001CC2F818C0D4F804C0CCF3066C68
:10092000C2F820C0D4F804C008344FEADC7CC2F816
:1009300024C008E0C6F38A46C7E700BF14F801CB1D
:10094000761C03F801CBD2F80CC007EB1C4C9CF8CA
:1009500000C0B445F2D840290AD041290CD0006823
:1009600020294FF001020BD28A40C0F898200BE0FA
:100970000068C0F8A85007E00068C0F8B85003E06D
:1009800020398A40C0F89C200020F0BDFC280008D7
:10099000704700002DE9F84FDFF858B40446ABF17A
:1009A0000400226800689246DBF800C0136D566DA3
:1009B000116D576DD2F85090556DD2F8508009F0F6
:1009C000F00205EA0209DAF85450DAF850204FEA4A
:1009D000807E03F4704301F00F0108F07F58D205C8
:1009E0000EEA8C70009006EA030607EA010705EAA2
:1009F000080518D5DAF85400C00514D5DAF85410F3
:100A00004FF4807321F4807CCAF854C00021DBF8D5
:100A100000C0ABF10402CBF800C020680365116090
:100A20002046FFF7B5FF2068016D490522D5416DCD
:100A300049051FD5426D22F480624265DBF8000053
:100A4000CBF800002068D0F8DC20D0F8E410D0F813
:100A5000E43011408B43C0F8E430D4F800C00020EB
:100A6000E44A4FF48063121FCCF8503010602046E7
:100A700000F068FBDFF880A30098E0B122684FEA3D
:100A80009078536D00EA0A0EDFF868C323EA0E037C
:100A90005365ACF1040CDBF80020009822EA90705A
:100AA000CBF800002168C1F850E0CCF80080204667
:100AB0000099FFF779FECEB122684FEA9678536D20
:100AC00006EA0A00DFF82CC383435365ACF1040C3B
:100AD000DBF8002022EA9672CBF800202168086536
:100AE000CCF800803146204600F02EFBBFB12268D2
:100AF0004FEA977C536D07EA0A00BE4E361F8343C8
:100B00005365DBF8002022EA9772CBF800202168B9
:100B10000865C6F800C03946204600F0C9FAB9F1A8
:100B2000000F16D022684FEA9976536D09EA0A0041
:100B3000B04F3F1F83435365DBF8003023EA9972BF
:100B4000CBF80020216808653E604946204600F049
:100B5000D9FA2068016D090515D5416D090512D531
:100B6000426D4FF4006322F4006646650022DBF814
:100B70000060A048CBF80060001F21680B65026090
:100B8000204600F0E2FA2068016D890520D5416D0C
:100B900089051DD5426D22F400724265DBF8000024
:100BA000CBF800002068D0F8D820D0F8E010D0F8BA
:100BB000E03011408B43C0F8E030266800208D4AB9
:100BC0004FF40073121F33651060204600F0BBFA2B
:100BD0002068016D090315D5416D090312D5426DD9
:100BE0004FF4002322F4002646650022DBF8006063
:100BF0008048CBF80060001F21680B65026020462A
:100C000000F054FA2068016DC90315D5416DC90380
:100C100012D5426D4FF4803322F4803646650022AF
:100C2000DBF800607348CBF80060001F21680B659B
:100C30000260204600F085FA2068016D490315D551
:100C4000416D490312D5426D4FF4802322F4802672
:100C500046650022DBF800606648CBF80060001FA4
:100C600021680B650260204600F06AFA2068016D79
:100C7000890318D5416D890315D5426D4FF40033B2
:100C800022F4003646650022DBF800605948CBF8B4
:100C90000060001F21680B650260D4F8980040F0E6
:100CA0008000C4F89800B5B12268AE0F536D05EA14
:100CB0000A00504F3F1F83435365DBF8002022EAB0
:100CC0009572CBF80020216808653E60D4F8980042
:100CD0002843C4F898004949206888427DD160685B
:100CE0008146806880077BD0D9F82060D9F824102D
:100CF000D9F82080D9F82420D9F82030D9F82470E8
:100D0000D9F82000D9F82450D9F820C000F4FC40CC
:100D100006F00F0AD9F82460054008F0300B03F400
:100D2000C07811EA0A010CF4F02302EA0B0A07EA80
:100D3000080706EA030609D0D9F824008843C9F851
:100D4000240060680162204600F0F7F9BAF1000F54
:100D50000BD06068416A21EA0A0141626168C1F80A
:100D600020A05146204600F0EAF96068016A490671
:100D700011D5416A49060ED5426A402122F040024F
:100D800042626068C36BC26B01622046190C02F0BC
:100D90003F0200F0D3F94FB16068416AB943416244
:100DA000606807623946204600F0C6F955B16068B0
:100DB000416AA943416260680562D4F898002843FB
:100DC000C4F898004EB16068416AB14341626068FE
:100DD0000662D4F89800304300E001E0C4F89800BF
:100DE000D4F89800002802D02046FFF71FFDBDE888
:100DF000F88F000014A80040FFFFCF3F00A0004084
:100E00002DE9F04104000CD0824D2068A84202D1A7
:100E100000F58070606094F894004FF0000818B1FD
:100E200007E00120BDE8F081204684F8958000F0BD
:100E3000F5F82068816921F01001816100F08AFADB
:100E40000327064605E000BF00F084FA801B0A284D
:100E500011D8206880690007F6D42068816941F0C4
:100E60000101816100F076FA06460DE000F072FAA9
:100E7000801B0A2808D9D4F8980040F00100C4F873
:100E8000980084F89470CCE720688069C007EDD0A2
:100E90002068816941F002018161207C012820687D
:100EA00081692DD041F040018161607C012820687A
:100EB000816928D021F480418161A07C01282068CB
:100EC000816923D041F4805181612068A2688169E1
:100ED00021F4407111438161E068012819D010B3F9
:100EE00002281BD02068816941F08001816120685F
:100EF000016941F010010161E06803280ED012E0A1
:100F000021F04001D0E741F48041D5E721F4805140
:100F1000DAE72068816941F0040103E02068816913
:100F200041F020018161207E6FF0FF01D4E9077359
:100F3000A68A0A02400601EB0727A0F10070384399
:100F400027685B1E184302EB06463043F861A06831
:100F5000B0F5407F11D104F12800A68C6FF00F0C82
:100F600089C8401E01EB0321084302EB06412268B9
:100F70000CEB071318430843D060206E30B1206893
:100F8000626ED0F8C0101143C0F8C010D4E9171237
:100F90002148D14208D02168A36E51F8C82FC35C04
:100FA00022F007021A430A60216C41B12168636C88
:100FB00051F8BC2FC35C22F007021A430A60A16CEF
:100FC00049B12168E26C51F8BC3F825C23F07003A8
:100FD00043EA02120A60216D49B12168626D51F83D
:100FE000BC3F805C23F4E06242EA00200860206895
:100FF000A84204D16068816821F003018160204625
:10100000FFF7C0F90121C4F8988084F894100020FB
:1010100008E7000000A000400C290008214870B536
:10102000B6B0016841F008010160016801F00801F3
:101030003491016841F008010160006800F0080087
:1010400034904FF400400090410368461B9100F03B
:10105000FDF914480C30016841F4807101600068AA
:101060000321114E012400F48070349002202F904F
:101070000925339530903046CDE931412FA900F054
:1010800065F82FA9304633952F9400F05FF80122C0
:101090000021132000F0A8F9132000F098F936B0D1
:1010A00070BD0000E0440258000C02587047000078
:1010B00010B50446C80720D0104B4021104A2046E6
:1010C000FFF7B6FB00B1FEE70D490A68A2F54070D4
:1010D00021380AD1486840B9C868B0F5003F04D14A
:1010E00006480649491E0078087000220121204662
:1010F000FFF7E8FA002800D0FEE710BD0500002445
:10110000C0000024704790F89410012907D0D0F84F
:10111000981041F00401C0F8981001207047022196
:1011200080F89410002201688B6923F001038B6121
:10113000C0F8982010467047704770477047704756
:101140007047704770477047704770472DE9F84FF8
:101150006F4D00224FF001094FF0030E4FF00F0BBF
:101160000B6809FA02F803EA0803434574D14C6896
:10117000022C01D0122C0FD1D4080E69570700EBB6
:101180008404A246246AFF0E0BFA07FCBE4024EA40
:101190000C042643CAF820600F79540006680EFA42
:1011A00004FC07F0030726EA0C06A7403743076054
:1011B0004E68012E05D0022E03D0112E01D0122E22
:1011C0000FD18668CF6826EA0C06A74037438760B0
:1011D00046680F7926EA0806C7F300179740374399
:1011E0004760C7688E6827EA0C07A6403E43C66082
:1011F0004C68E40030D5474C266846F0020626606D
:10120000246822F0030606F1B04604F002040094BC
:101210009407270FD6F80844DFF8FC800BFA07FC88
:10122000404524EA0C0402D14FF0000C41E0DFF805
:10123000ECC0604502D14FF0010C3AE0DFF8E0C0AD
:10124000604502D14FF0020C33E0DFF8D8C06045B2
:1012500003D14FF0030C2CE053E0DFF8CCC0604525
:1012600002D14FF0040C24E0DFF8C0C0604502D189
:101270004FF0050C1DE0DFF8B8C0604502D14FF01B
:10128000060C16E0DFF8ACC0604502D14FF0070C49
:101290000FE0DFF8A4C0604502D14FF0080C08E071
:1012A000DFF898C0604502D14FF0090C01E04FF023
:1012B0000A0C0CFA07FC4CEA040CC6F808C42C68AB
:1012C0004E6824EA0304F60300D51C432C606C68C6
:1012D0004E6824EA0304B60300D51C436C604FF04B
:1012E000B0444F682668FF0226EA030600D51E4375
:1012F00026604F686668BF0226EA030600D51E43D3
:101300006660521C102AFFF42BAFBDE8F88F000076
:1013100080000058F44402580000025800040258AB
:1013200000080258000C025800100258001402581D
:1013300000180258001C02580020025800240258CD
:1013400042694A40426170470AB101837047418354
:1013500070470000014880687047000018000024B2
:1013600002488168027811448160704718000024A7
:10137000032010B500F058F80F2000F007F808B16E
:10138000012010BD00F022F8002010BD70B50D4DF9
:1013900004464FF47A700C4A29781268B0FBF1F0D9
:1013A000B2FBF0F001F08EF848B9102C07D2002201
:1013B0002146501E00F018F800206C6070BD01201E
:1013C00070BD0000180000240000002470470028B1
:1013D00009DB410900F01F028900012001F1E02131
:1013E0009040C1F8000170470E4BF0B41B680D46E9
:1013F000C3F30223C3F10706042E00D90426191DE6
:10140000072901D2002300E0DB1E012404FA06F1C3
:101410009C40491E2940641E994014402143F0BC61
:1014200001F017BA0CED00E0064900F0070210B514
:101430004FF6FF040868044B204040EA022018439E
:10144000086010BD0CED00E00000FA052DE9FC5F1E
:10145000044650F8241B002500902E460801FE4F3C
:10146000DFF8F8931DD5606E50B1B0F5801F0CD039
:10147000B0F5001F0ED0B0F5401F1DD001250FE0C4
:10148000386840F40030386016E00221201D01F079
:1014900057F803E00098022101F0D0F805000BD0C6
:1014A0002E462088C00523D5606D05281ED2DFE8B2
:1014B00000F00C11161B1B00626ED9F8001021F40D
:1014C00040111143C9F80010EBE7386840F40030D0
:1014D000386009E00021201D01F032F803E0009897
:1014E000002101F0ABF805466DB100E001252E4367
:1014F0002088800528D5A06D80281ED00CDC90B1F6
:1015000040280ED114E0626DD9F8001021F00701D7
:101510001143C9F80010EBE7C02813D0B0F5807F65
:1015200010D001250FE0386840F40030386009E041
:101530000021201D01F004F803E00098002101F0D3
:101540007DF8054695B12E432088DFF810834005CD
:1015500008F108082CD5D4F8A400B0F5800F20D0ED
:101560000DDCA0B1B0F5001F0FD115E0A26DD9F8C8
:10157000001021F4E0711143C9F80010E4E7B0F560
:10158000C00F13D0B0F5000F10D001250FE0386860
:1015900040F40030386009E00021201D00F0D0FF49
:1015A00003E00098002101F049F8054675B12E438B
:1015B000208800052DD5D4F8A800B0F1007F21D0F7
:1015C0000EDCA8B1B0F1807F10D116E0D4F8A420D1
:1015D000D8F8001021F460011143C8F80010E7E7C3
:1015E000B0F1407F13D0B0F1806F10D001250FE033
:1015F000386840F40030386009E00021201D00F018
:101600009FFF03E00098002101F018F805466DB136
:101610002E43206880011FD5A06CD8B110280FD0B0
:10162000202812D0302815D0012514E0D4F8A820A5
:10163000D8F8001021F0E0611143C8F80010E8E785
:10164000386840F40030386004E00221201D00F0CA
:1016500077FF05466DB12E432088C0042BD5E06D81
:10166000B0F5005F20D00DDCA0B1B0F5805F0FD1E8
:1016700015E07A48A26C001F016821F03001114387
:101680000160E9E7B0F5405F13D0B0F5804F10D0AE
:1016900001250FE0386840F40030386009E000218F
:1016A000201D00F04DFF03E00098002100F0C6FF70
:1016B000054685B12E432088800429D5206EB0F5DB
:1016C000403F23D010DC08B3B0F5803F14D0B0F514
:1016D000003F0FD115E0E26DD9F8001021F4E04190
:1016E0001143C9F80010E6E7B0F5802F0ED0B0F531
:1016F000A02F0BD001250AE00121201D00F020FFC2
:1017000003E00098012100F099FF05468DB12E43BA
:10171000208840042AD5D4F8AC00B0F1405F23D033
:1017200010DC08B3B0F1805F14D0B0F1005F0FD1CE
:1017300015E0226ED9F8001021F4E0211143C9F818
:101740000010E5E7B0F1804F0ED0B0F1A04F0BD004
:1017500001250AE00121201D00F0F2FE03E00098BF
:10176000012100F06BFF05466DB12E432088000477
:101770001FD5E06ED8B1B0F1805F0ED0B0F1005F40
:1017800010D0012514E0D4F8AC20D8F8001021F0D6
:10179000E0411143C8F80010E8E7386840F4003031
:1017A000386004E00121201D00F0CAFE05466DB13D
:1017B0002E432068C0011ED5606CD0B101280ED028
:1017C000022811D0032814D0012513E0E26ED9F8C5
:1017D000001021F040511143C9F80010E9E73868C2
:1017E00040F40030386004E00221201D00F0A8FE23
:1017F000054685B12E432068DFF85CB04002ABF1AE
:101800001C0B1FD51648016841F480710160FFF779
:10181000A1FD824610E01148626C001F016821F0B2
:10182000030111430160E6E7FFF794FDA0EB0A0016
:10183000642801D9032504E009480068C005F3D5F0
:10184000C5B12E432078DFF814A0C0070AF1040ABE
:1018500079D0A06F182805E02C4402585044025853
:10186000004802586DD05BDCC0B308285ED0102859
:101870005AD161E0DFF880A4B4F8B010DAF80000C3
:1018800001F4407100F44070884211D0DAF8001081
:10189000DAF8002021F4407142F48032CAF80020C6
:1018A000DAF8002022F48032CAF80020CAF80010CA
:1018B000D4F8B000B0F5807F15D1FFF74BFD019053
:1018C0000DE000BFFFF746FD0199411A41F2883053
:1018D000814204D9032546F00306B3E731E0DAF884
:1018E00000008007EED5D4F8B010C1F30120032822
:1018F00058460DD0016821F47C510160B4F8B02045
:10190000DAF80010C2F30B021143CAF8001099E78D
:10191000FA4A036802EA111223F47C511143ECE7FE
:1019200020280ED028280CD001250BE00121201DF5
:1019300000F006FE04E006E00098012100F07EFEC3
:1019400005465DB12E43207880071ED5606F0628BE
:1019500019D2DFE800F0160C11161616A26FDAF88D
:10196000001021F038011143CAF80010EBE7012103
:10197000201D00F0E5FD03E00098012100F05EFE6F
:10198000054675B100E001252E43207840071FD59C
:10199000D4F89000062819D2DFE800F0160C1116D2
:1019A0001616626FDAF8001021F007011143CAF829
:1019B0000010EAE70121201D00F0C2FD03E00098BD
:1019C000012100F03BFE05469DB100E001252E43BC
:1019D000207880062BD5D4F88C00B0F1405F24D05D
:1019E00011DC10B3B0F1805F15D0B0F1005F10D101
:1019F00016E0D4F89020D8F8001021F00701114328
:101A0000C8F80010E4E7B0F1804F0ED0B0F1A04F5D
:101A10000BD001250AE00021201D00F091FD03E01C
:101A20000098022100F00AFE05468DB12E43207871
:101A300040062BD5D4F89800B0F5406F24D011DCC7
:101A400010B3B0F5806F15D0B0F5006F10D116E06F
:101A5000D4F88C20DAF8001021F0E0411143CAF8E4
:101A60000010E4E7B0F5805F0ED0B0F5A05F0BD0BA
:101A700001250AE00021201D00F062FD03E000982E
:101A8000022100F0DBFD05468DB12E4320780006D3
:101A90002BD5D4F89C00B0F5C04F24D011DC10B386
:101AA000B0F5005F15D0B0F5804F10D116E0D4F836
:101AB0009820D8F8001021F4E0511143C8F8001024
:101AC000E4E7B0F5004F0ED0B0F5204F0BD0012564
:101AD0000AE00021201D00F033FD03E00098022100
:101AE00000F0ACFD054665B32E43207800070BD50A
:101AF000D4F88010B1F5805F2DD0DAF8002022F400
:101B000040520A43CAF800202078C0060BD5D4F80A
:101B10009410B1F5807F24D0D8F8002022F44072D0
:101B20000A43C8F80020206800032CD5D4F8A00090
:101B3000E8B1B0F5803F1FD0B0F5003F21D00125BE
:101B400020E0D4F89C20D8F8001021F46041114323
:101B5000C8F80010C9E70098022100F06FFD0643A5
:101B6000D2E70098022100F069FD0643DBE700217F
:101B7000201D00F0E5FC03E00098022100F05EFD6E
:101B8000054685B12E432068400322D5D4F8840051
:101B9000B0F5801F11D0B0F5001F13D0B0F5401F75
:101BA00015D0012514E0D4F8A020D8F8001021F4B5
:101BB00040311143C8F80010E5E7386840F40030C0
:101BC000386004E00098012100F038FD054655B169
:101BD0002E432068C0031CD5E06C70B1B0F5803F87
:101BE00010D0012514E0D4F88420DAF8001021F494
:101BF00040111143CAF80010EBE7386840F4003098
:101C0000386004E00221201D00F09AFC0546C5B1B1
:101C10002E432068800004D50098022100F00EFDBC
:101C20000643206880031BD5E06FB8B1B0F5807F14
:101C300010D0B0F5007F11D0B0F5407F0ED0012557
:101C40000DE02D48E26C2438016821F48031114305
:101C50000160DEE7386840F400303860F5B32E43A9
:101C60002068C00207D5226FD9F8001021F000418A
:101C70001143C9F800102068C00008D5D4F8B4207A
:101C8000DBF8001021F480411143CBF800102068EC
:101C9000800207D5A26ED9F8001021F0807111439F
:101CA000C9F80010206840000CD5DBF8001021F4C2
:101CB0000041CBF80010DBF80010D4F8B820114335
:101CC000CBF800102068002807DA0B48226D243872
:101CD000016821F040511143016000E003E07EB152
:101CE0000120BDE8FC9FE26FDAF8001021F440719A
:101CF0001143CAF80010B3E770440258CFFFFF0049
:101D00000020EEE72DE9F047DFF8C49104460E46C7
:101D1000D9F8000000F00700B0420CD2D9F800104A
:101D200021F007013143C9F80010D9F8000000F094
:101D30000700B04272D12078DFF89881800707D57C
:101D4000E268D8F8001021F00F011143C8F8001024
:101D50002078C00767D05F49A368D8F800201839F9
:101D600022F470621A43C8F80020606802281CD070
:101D700003281DD0096801281DD04907002963DA0E
:101D8000544D083D296821F0070101432960FFF700
:101D9000E1FA6168074641F28830022914D003292C
:101DA00020D0012982462AD039E009688903E5E775
:101DB00009688901E2E7C905E0E700BFFFF7CAFA51
:101DC000C11B514501D926E082462868C0F3C200F4
:101DD0000228F3D127E000BFFFF7BCFAC11B514531
:101DE00001D918E082462868C0F3C2000328F3D165
:101DF00019E000BFFFF7AEFAC11B51450BD82868A8
:101E0000C0F3C2000128F5D10DE000BFFFF7A2FA30
:101E1000C11B514503D90320BDE8F08714E02868B1
:101E200010F0380FF2D1D9F80010484601F0070140
:101E3000B1420BD9016821F007013143016000680C
:101E400000F00700B04201D00120E5E7207840070C
:101E500007D52269D8F8001021F070011143C8F8A5
:101E6000001021781B48001D090705D5626901682B
:101E700021F07001114301602178C90605D5A269DE
:101E8000016821F4E061114301602078800607D5E4
:101E90001048E2690830016821F0700111430160C7
:101EA00000F01EF8D8F800104FF4807292FAA2F2F7
:101EB00001F47061B2FA82F2D140074A515CC84025
:101EC000064908600F20FFF761FA0020A4E7000030
:101ED0000020005218440258EC280008000000249A
:101EE0004749F0B547480968454B103B11F03804A5
:101EF00009D00111082C04D0C210102C0BD0182CC2
:101F00000BD00846F0BD19688906FBD51968C1F3E6
:101F1000C101C840F0BD1046F0BD394CDFF8E0C04B
:101F20001834261D0CF1240C2768351D2468DFEDBC
:101F3000360AB7EE001A3668DCF800C017F003075F
:101F400006F00106C4F30514CCF3CC0C1CFB06F61A
:101F500000EE106AB8EE400A09D0012F01D0022F1E
:101F60003BD02868B1FBF4F1C0F308003AE01968EF
:101F7000890615D51A682968C2F3C102C1F30801A0
:101F8000D04001EE901AB0FBF4F0F8EE611A40EE8A
:101F9000201A00EE100A71EE810AB8EE400A0BE03A
:101FA0002968B0FBF4F0C1F3080101EE901AB8EE15
:101FB000612A01EE900A1BE020EE200A2868C0F397
:101FC0004620401C00EE900AF8EE600A80EE201ACF
:101FD000BCEEC10A10EE100AF0BD2868B2FBF4F1A5
:101FE000C0F3080001EE900AB8EE612A01EE901AE3
:101FF00000EE202AB8EE610A72EE010ADCE700006A
:10200000104402580090D003000000392DE9F05F21
:10201000FD4C0546007841F28838DFF8EC93103C1F
:10202000F94FC00709F118094CD03868C0F3C20055
:1020300002281AD03868C0F3C200032805D1D9F8A5
:10204000000000F0030002280FD06868B0F5803F60
:1020500012D010B1B0F5A02F18D0206820F4803035
:102060002060206820F4802009E02068800329D5C2
:10207000686800286CD025E0206840F4803020603B
:10208000686890B1FFF766F906460AE0206840F4F8
:1020900080202060F0E700BFFFF75CF9811B41451D
:1020A00075D820688003F7D50CE0FFF753F9064692
:1020B00005E000BFFFF74EF9811B4145F0D82068CD
:1020C0008003F7D42878D04E0C3E800769D5386855
:1020D0004FF47C3B10F0380F13D03868C0F3C200C7
:1020E000032803D1D9F8000080070AD0E86870B34C
:1020F000216821F0190101432160FFF72BF9824685
:102100002EE02068400702D5E8680028B2D0E968D0
:10211000206820F0190008432060FFF71BF9824671
:1021200006E000BFFFF716F9A0EB0A000228B7D8B7
:1021300020684007F6D5296932689BFAABF0B0FAFF
:1021400080F0814022F47C300843306029E016E0C2
:10215000BEE000BFFFF7FEF8A0EB0A0002289FD800
:1021600020684007F6D5286932689BFAABF1B1FACE
:1021700081F1884022F47C310143316011E0206814
:1021800020F001002060FFF7E5F8824606E0EFE06E
:10219000FFF7E0F8A0EB0A0002288FD8206840077C
:1021A000F6D42878C00647D538684FF0F84BC0F30E
:1021B000C200012815D03868C0F3C200032805D139
:1021C000D9F8000000F0030001280AD0E8690028CF
:1021D000206822D040F080002060FFF7BBF88246E4
:1021E0000CE02068C0050CD5E869802870D108E0B3
:1021F000FFF7B0F8A0EB0A00022898D82068C005C5
:10220000F6D5286A32689BFAABF1B1FA81F18840C1
:1022100022F0F841014331600EE020F080002060A0
:10222000FFF798F8064604E0FFF794F8801B0228B1
:1022300095D82068C005F7D42878000729D57248BA
:102240006969643000298246016811D041F00101BA
:102250000160FFF77FF8064605E000BFFFF77AF858
:10226000801B022899D8DAF800008007F6D510E024
:1022700021F001010160FFF76DF8064605E000BF9F
:10228000FFF768F8801B022872D8DAF80000800790
:10229000F6D42878800625D5A8690028206810D0B3
:1022A00040F480502060FFF755F8064605E000BF77
:1022B000FFF750F8801B02285AD820688004F7D511
:1022C00010E020F480502060FFF744F8064606E056
:1022D000D4E000BFFFF73EF8801B022848D82068F2
:1022E0008004F7D4287840074DD5DFF820A1DAF82C
:1022F000001041F48071CAF80010FFF72BF8064671
:1023000005E000BFFFF726F8801B642830D8DAF814
:102310000000C005F6D53C4EA868603601280AD0FA
:1023200008B1052811D0306820F001003060306815
:1023300020F0040002E0306840F001003060A8683E
:1023400090B1FFF707F882460AE0306840F00400D9
:102350003060F0E7FEF7FEFFA0EB0A01414507D829
:1023600030688007F6D50EE0FEF7F4FF824607E0FE
:1023700083E000BFFEF7EEFFA0EB0A0141457CD8E9
:1023800030688007F6D4686AE8B33968C1F3C201DF
:10239000032973D00228206820F08070206003D0C9
:1023A000FEF7D8FF054683E0FEF7D4FF064604E0BB
:1023B000FEF7D0FF801B022877D820688001F7D471
:1023C000EB6A40F2F332D9F800104FF4FE0755F8EB
:1023D000286F914341EA03113143C9F80010287B6B
:1023E0004FF0FE4C084EB5F8088040022B8A20368C
:1023F0002A7DA8F10108311DA0F5007080B25B1E96
:10240000C8F3080804E056E0104402580048025897
:10241000521E07EA034340EA08000CEA02674FF63F
:10242000F8721843384330600B6892FAA2F72E6AAC
:10243000B7FA87F722489343BE4033430B600168E5
:10244000AA6921F00C01114301600168EA6921F0D9
:10245000020111430160016841F4803101600168AB
:1024600041F400310160016841F48021016001689C
:1024700041F001010160206801E016E01DE040F03C
:1024800080702060FEF766FF054604E0FEF762FFFD
:10249000401B022809D820688001F7D50BE000BF57
:1024A000FEF758FF401B022802D90320BDE8F09F29
:1024B00020688001F4D40020F8E70120F6E700004E
:1024C0002C440258401EB0F1807F10B501D301208A
:1024D00010BD4FF0E02460610F21601700F0B9F9E2
:1024E0000020A0610721216110BDFEE7104810B552
:1024F00086B0016841F002010160006801210D4CC5
:1025000000F0020005900320CDE90001CDE90210A2
:1025100069462046FEF71AFE012220461146FEF7C4
:1025200013FF012220460221FEF70EFF06B010BD68
:10253000E044025800040258FEE77047704700006C
:102540002DE9F0473C4E044689464FF0000A3068BA
:10255000C04380070AD0384D283D286820F08060AD
:102560002860FEF7F7FE0746A84608E00120BDE810
:10257000F08700BFFEF7EEFEC01B022855D8D8F842
:1025800000000001F6D4206831684FF4FE0C4FF0D3
:10259000FE4721F47C3141EA00303060207AA68881
:1025A000A3894002244D761E23495B1E227C1035F0
:1025B000091DA0F5007080B2521EC6F30806304314
:1025C0000CEA0343184307EA0262104328600868D4
:1025D000626920F0C000104308600868A26920F01A
:1025E000200010430860B9F1000F11D00868B9F15C
:1025F000010F11D040F400100860D8F800004446E4
:1026000040F08060C8F80000FEF7A4FE05460EE02A
:10261000086840F40020EFE740F48010ECE700BFCA
:10262000FEF798FE401B022801D903209FE720688F
:102630000001F5D550469AE7284402582DE9F047A5
:102640003C4E044689464FF0000A3068C04380077C
:102650000AD0384D283D286820F080502860FEF7C9
:1026600079FE0746A84608E00120BDE8F08700BFD4
:10267000FEF770FEC01B022855D8D8F80000800075
:10268000F6D4208831684FF4FE0C4FF0FE4721F05D
:102690007C7141EA00503060207AA688A38940020C
:1026A000244D761E23495B1E227C1835091DA0F59A
:1026B000007080B2521EC6F3080630430CEA034392
:1026C000184307EA0262104328600868626920F430
:1026D0004060104308600868A26920F4007010434D
:1026E0000860B9F1000F11D00868B9F1010F11D0DD
:1026F00040F080700860D8F80000444640F08050F8
:10270000C8F80000FEF726FE05460EE0086840F413
:102710008000EFE740F40000ECE700BFFEF71AFE90
:10272000401B022801D903209FE720688000F5D5CF
:1027300050469AE7284402587047FEF711BE000041
:10274000204830B59DB0016821F0040101601D48AA
:102750000C300024016841F440410160016801F43B
:1027600040411B9101688904FCD50220039401219A
:102770000091C8210990C2030192079414220A9083
:102780000825CDE90B01CDE90E20CDE910540D90BF
:102790006846FFF73BFC00B1FEE740201A903F215E
:1027A0000301CDE916500322CDE9180313AB13A89A
:1027B00083E816000421FFF7A5FA002800D0FEE701
:1027C0001DB030BD0C4802581D4AF0B51D491468B3
:1027D00000201C4B44F47004146010330A681A4C37
:1027E00042F001020A6018600D68164A25400D602B
:1027F0001832131D1C1D134D1060283518602A1D3A
:102800002060131D1C1D2860251D10602A1D1860E6
:10281000131D20601C1D28601060186020600A686D
:102820000124084B064FE606084D6033803F22F432
:1028300080220A601860C5F808413E60F0BD0000C3
:1028400088ED00E0004402587FEDF6EA0080005178
:10285000FEE7090700284FEA116104DB00F1E020E0
:1028600080F80014704700F00F0000F1E02080F8BD
:10287000141D704702E008C8121F08C1002AFAD1CF
:1028800070477047002001E001C1121F002AFBD1F0
:1028900070470000FDF730FDFEF76AFDFFF750FFBF
:1028A000FFF724FEFDF76EFE0D4C0125DFF8349096
:1028B000AD2636274FF47A784046FDF7F1FE2570B5
:1028C000012166704846E771FEF73AFD0649044A61
:1028D000A1F1C400FDF73CFF0028EDD0FEE70000A9
:1028E0000D00002400040258E8000024000000004D
:1028F00001020304010203040607080900010203A0
:1029000004050607080C10141820304000000000D1
:10291000000102030400050000000600000007009B
:10292000402900080000002424000000742800084A
:102930006429000824000024EC0400008428000816
:102940000090D00300000000000000000000000024
:102950000000000000000000010000001000000066
:042960000000000073
:040000050800029954
:00000001FF
